:10000000B7107E2B938060518B810002B7D0AE2851
:100010009380602A0B810002B710F7AB9380805861
:100020008B800002B750CF099380C0F30B80000291
:10003000B7C0C16B938020EE8B910004B7A0402E17
:10004000938060F90B910004B7803DE9938010E143
:100050008B900004B71093739380A0720B900004F0
:100060000B813006370110F0130141F22320C1014A
:10007000370110F0130101F22320010013000000EA
:100080001300000013000000130000001300000024
:040090001300000059
:00000001FF
